{
  "_format": "hh-sol-artifact-1",
  "contractName": "KeyManagerV3",
  "sourceName": "contracts/KeyManagerV3.sol",
  "abi": [
    {
      "inputs": [],
      "name": "InvalidInitialization",
      "type": "error"
    },
    {
      "inputs": [],
      "name": "NotInitializing",
      "type": "error"
    },
    {
      "inputs": [
        {
          "internalType": "address",
          "name": "owner",
          "type": "address"
        }
      ],
      "name": "OwnableInvalidOwner",
      "type": "error"
    },
    {
      "inputs": [
        {
          "internalType": "address",
          "name": "account",
          "type": "address"
        }
      ],
      "name": "OwnableUnauthorizedAccount",
      "type": "error"
    },
    {
      "anonymous": false,
      "inputs": [
        {
          "indexed": false,
          "internalType": "uint64",
          "name": "version",
          "type": "uint64"
        }
      ],
      "name": "Initialized",
      "type": "event"
    },
    {
      "anonymous": false,
      "inputs": [
        {
          "indexed": true,
          "internalType": "address",
          "name": "previousOwner",
          "type": "address"
        },
        {
          "indexed": true,
          "internalType": "address",
          "name": "newOwner",
          "type": "address"
        }
      ],
      "name": "OwnershipTransferred",
      "type": "event"
    },
    {
      "inputs": [
        {
          "internalType": "string",
          "name": "userId",
          "type": "string"
        }
      ],
      "name": "deletePublicKey",
      "outputs": [],
      "stateMutability": "nonpayable",
      "type": "function"
    },
    {
      "inputs": [],
      "name": "getOwner",
      "outputs": [
        {
          "internalType": "address",
          "name": "",
          "type": "address"
        }
      ],
      "stateMutability": "view",
      "type": "function"
    },
    {
      "inputs": [
        {
          "internalType": "string",
          "name": "userId",
          "type": "string"
        }
      ],
      "name": "getPublicKey",
      "outputs": [
        {
          "internalType": "bytes",
          "name": "",
          "type": "bytes"
        }
      ],
      "stateMutability": "view",
      "type": "function"
    },
    {
      "inputs": [
        {
          "internalType": "address",
          "name": "_owner",
          "type": "address"
        }
      ],
      "name": "initialize",
      "outputs": [],
      "stateMutability": "nonpayable",
      "type": "function"
    },
    {
      "inputs": [
        {
          "internalType": "string",
          "name": "userId",
          "type": "string"
        }
      ],
      "name": "isUserRegistered",
      "outputs": [
        {
          "internalType": "bool",
          "name": "",
          "type": "bool"
        }
      ],
      "stateMutability": "view",
      "type": "function"
    },
    {
      "inputs": [],
      "name": "owner",
      "outputs": [
        {
          "internalType": "address",
          "name": "",
          "type": "address"
        }
      ],
      "stateMutability": "view",
      "type": "function"
    },
    {
      "inputs": [],
      "name": "renounceOwnership",
      "outputs": [],
      "stateMutability": "nonpayable",
      "type": "function"
    },
    {
      "inputs": [
        {
          "internalType": "string",
          "name": "userId",
          "type": "string"
        },
        {
          "internalType": "bytes",
          "name": "publicKey",
          "type": "bytes"
        }
      ],
      "name": "setPublicKey",
      "outputs": [],
      "stateMutability": "nonpayable",
      "type": "function"
    },
    {
      "inputs": [
        {
          "internalType": "address",
          "name": "newOwner",
          "type": "address"
        }
      ],
      "name": "transferOwnership",
      "outputs": [],
      "stateMutability": "nonpayable",
      "type": "function"
    },
    {
      "inputs": [
        {
          "internalType": "string",
          "name": "userId",
          "type": "string"
        },
        {
          "internalType": "bytes",
          "name": "newPublicKey",
          "type": "bytes"
        }
      ],
      "name": "updatePublicKey",
      "outputs": [],
      "stateMutability": "nonpayable",
      "type": "function"
    }
  ],
  "bytecode": "0x6080604052348015600f57600080fd5b506114198061001f6000396000f3fe608060405234801561001057600080fd5b506004361061009e5760003560e01c806398319da61161006657806398319da614610121578063a8cc77841461013d578063bff908211461016d578063c4d66de81461019d578063f2fde38b146101b95761009e565b806336241962146100a35780634b6c2b37146100bf578063715018a6146100db578063893d20e8146100e55780638da5cb5b14610103575b600080fd5b6100bd60048036038101906100b89190610c5c565b6101d5565b005b6100d960048036038101906100d49190610d46565b6102ad565b005b6100e3610365565b005b6100ed610379565b6040516100fa9190610dff565b60405180910390f35b61010b610388565b6040516101189190610dff565b60405180910390f35b61013b60048036038101906101369190610d46565b6103c0565b005b61015760048036038101906101529190610c5c565b6104a4565b6040516101649190610e35565b60405180910390f35b61018760048036038101906101829190610c5c565b6104f9565b6040516101949190610ecf565b60405180910390f35b6101b760048036038101906101b29190610f1d565b6105c9565b005b6101d360048036038101906101ce9190610f1d565b610758565b005b6101dd6107de565b6000816040516020016101f09190610f91565b6040516020818303038152906040528051906020012090506001600082815260200190815260200160002060009054906101000a900460ff16610268576040517f08c379a000000000000000000000000000000000000000000000000000000000815260040161025f90611005565b60405180910390fd5b60008082815260200190815260200160002060006102869190610aa5565b6001600082815260200190815260200160002060006101000a81549060ff02191690555050565b6102b56107de565b6000826040516020016102c89190610f91565b6040516020818303038152906040528051906020012090506001600082815260200190815260200160002060009054906101000a900460ff16610340576040517f08c379a000000000000000000000000000000000000000000000000000000000815260040161033790611005565b60405180910390fd5b81600080838152602001908152602001600020908161035f919061123b565b50505050565b61036d6107de565b6103776000610865565b565b6000610383610388565b905090565b60008061039361093c565b90508060000160009054906101000a900473ffffffffffffffffffffffffffffffffffffffff1691505090565b6103c86107de565b6000826040516020016103db9190610f91565b6040516020818303038152906040528051906020012090506001600082815260200190815260200160002060009054906101000a900460ff1615610454576040517f08c379a000000000000000000000000000000000000000000000000000000000815260040161044b90611359565b60405180910390fd5b816000808381526020019081526020016000209081610473919061123b565b50600180600083815260200190815260200160002060006101000a81548160ff021916908315150217905550505050565b600080826040516020016104b89190610f91565b6040516020818303038152906040528051906020012090506001600082815260200190815260200160002060009054906101000a900460ff16915050919050565b606060008260405160200161050e9190610f91565b604051602081830303815290604052805190602001209050600080828152602001908152602001600020805461054390611054565b80601f016020809104026020016040519081016040528092919081815260200182805461056f90611054565b80156105bc5780601f10610591576101008083540402835291602001916105bc565b820191906000526020600020905b81548152906001019060200180831161059f57829003601f168201915b5050505050915050919050565b60006105d3610964565b905060008160000160089054906101000a900460ff1615905060008260000160009054906101000a900467ffffffffffffffff1690506000808267ffffffffffffffff161480156106215750825b9050600060018367ffffffffffffffff16148015610656575060003073ffffffffffffffffffffffffffffffffffffffff163b145b905081158015610664575080155b1561069b576040517ff92ee8a900000000000000000000000000000000000000000000000000000000815260040160405180910390fd5b60018560000160006101000a81548167ffffffffffffffff021916908367ffffffffffffffff16021790555083156106eb5760018560000160086101000a81548160ff0219169083151502179055505b6106f486610978565b83156107505760008560000160086101000a81548160ff0219169083151502179055507fc7f505b2f371ae2175ee4913f4499e1f2633a7b5936321eed1cdaeb6115181d2600160405161074791906113c8565b60405180910390a15b505050505050565b6107606107de565b600073ffffffffffffffffffffffffffffffffffffffff168173ffffffffffffffffffffffffffffffffffffffff16036107d25760006040517f1e4fbdf70000000000000000000000000000000000000000000000000000000081526004016107c99190610dff565b60405180910390fd5b6107db81610865565b50565b6107e661098c565b73ffffffffffffffffffffffffffffffffffffffff16610804610388565b73ffffffffffffffffffffffffffffffffffffffff16146108635761082761098c565b6040517f118cdaa700000000000000000000000000000000000000000000000000000000815260040161085a9190610dff565b60405180910390fd5b565b600061086f61093c565b905060008160000160009054906101000a900473ffffffffffffffffffffffffffffffffffffffff169050828260000160006101000a81548173ffffffffffffffffffffffffffffffffffffffff021916908373ffffffffffffffffffffffffffffffffffffffff1602179055508273ffffffffffffffffffffffffffffffffffffffff168173ffffffffffffffffffffffffffffffffffffffff167f8be0079c531659141344cd1fd0a4f28419497f9722a3daafe3b4186f6b6457e060405160405180910390a3505050565b60007f9016d09d72d40fdae2fd8ceac6b6234c7706214fd39c1cd1e609a0528c199300905090565b60008061096f610994565b90508091505090565b6109806109bf565b610989816109ff565b50565b600033905090565b60007ff0c57e16840df040f15088dc2f81fe391c3923bec73e23a9662efc9c229c6a0060001b905090565b6109c7610a85565b6109fd576040517fd7e6bcf800000000000000000000000000000000000000000000000000000000815260040160405180910390fd5b565b610a076109bf565b600073ffffffffffffffffffffffffffffffffffffffff168173ffffffffffffffffffffffffffffffffffffffff1603610a795760006040517f1e4fbdf7000000000000000000000000000000000000000000000000000000008152600401610a709190610dff565b60405180910390fd5b610a8281610865565b50565b6000610a8f610964565b60000160089054906101000a900460ff16905090565b508054610ab190611054565b6000825580601f10610ac35750610ae2565b601f016020900490600052602060002090810190610ae19190610ae5565b5b50565b5b80821115610afe576000816000905550600101610ae6565b5090565b6000604051905090565b600080fd5b600080fd5b600080fd5b600080fd5b6000601f19601f8301169050919050565b7f4e487b7100000000000000000000000000000000000000000000000000000000600052604160045260246000fd5b610b6982610b20565b810181811067ffffffffffffffff82111715610b8857610b87610b31565b5b80604052505050565b6000610b9b610b02565b9050610ba78282610b60565b919050565b600067ffffffffffffffff821115610bc757610bc6610b31565b5b610bd082610b20565b9050602081019050919050565b82818337600083830152505050565b6000610bff610bfa84610bac565b610b91565b905082815260208101848484011115610c1b57610c1a610b1b565b5b610c26848285610bdd565b509392505050565b600082601f830112610c4357610c42610b16565b5b8135610c53848260208601610bec565b91505092915050565b600060208284031215610c7257610c71610b0c565b5b600082013567ffffffffffffffff811115610c9057610c8f610b11565b5b610c9c84828501610c2e565b91505092915050565b600067ffffffffffffffff821115610cc057610cbf610b31565b5b610cc982610b20565b9050602081019050919050565b6000610ce9610ce484610ca5565b610b91565b905082815260208101848484011115610d0557610d04610b1b565b5b610d10848285610bdd565b509392505050565b600082601f830112610d2d57610d2c610b16565b5b8135610d3d848260208601610cd6565b91505092915050565b60008060408385031215610d5d57610d5c610b0c565b5b600083013567ffffffffffffffff811115610d7b57610d7a610b11565b5b610d8785828601610c2e565b925050602083013567ffffffffffffffff811115610da857610da7610b11565b5b610db485828601610d18565b9150509250929050565b600073ffffffffffffffffffffffffffffffffffffffff82169050919050565b6000610de982610dbe565b9050919050565b610df981610dde565b82525050565b6000602082019050610e146000830184610df0565b92915050565b60008115159050919050565b610e2f81610e1a565b82525050565b6000602082019050610e4a6000830184610e26565b92915050565b600081519050919050565b600082825260208201905092915050565b60005b83811015610e8a578082015181840152602081019050610e6f565b60008484015250505050565b6000610ea182610e50565b610eab8185610e5b565b9350610ebb818560208601610e6c565b610ec481610b20565b840191505092915050565b60006020820190508181036000830152610ee98184610e96565b905092915050565b610efa81610dde565b8114610f0557600080fd5b50565b600081359050610f1781610ef1565b92915050565b600060208284031215610f3357610f32610b0c565b5b6000610f4184828501610f08565b91505092915050565b600081519050919050565b600081905092915050565b6000610f6b82610f4a565b610f758185610f55565b9350610f85818560208601610e6c565b80840191505092915050565b6000610f9d8284610f60565b915081905092915050565b600082825260208201905092915050565b7f55736572204944206973206e6f74207265676973746572656400000000000000600082015250565b6000610fef601983610fa8565b9150610ffa82610fb9565b602082019050919050565b6000602082019050818103600083015261101e81610fe2565b9050919050565b7f4e487b7100000000000000000000000000000000000000000000000000000000600052602260045260246000fd5b6000600282049050600182168061106c57607f821691505b60208210810361107f5761107e611025565b5b50919050565b60008190508160005260206000209050919050565b60006020601f8301049050919050565b600082821b905092915050565b6000600883026110e77fffffffffffffffffffffffffffffffffffffffffffffffffffffffffffffffff826110aa565b6110f186836110aa565b95508019841693508086168417925050509392505050565b6000819050919050565b6000819050919050565b600061113861113361112e84611109565b611113565b611109565b9050919050565b6000819050919050565b6111528361111d565b61116661115e8261113f565b8484546110b7565b825550505050565b600090565b61117b61116e565b611186818484611149565b505050565b5b818110156111aa5761119f600082611173565b60018101905061118c565b5050565b601f8211156111ef576111c081611085565b6111c98461109a565b810160208510156111d8578190505b6111ec6111e48561109a565b83018261118b565b50505b505050565b600082821c905092915050565b6000611212600019846008026111f4565b1980831691505092915050565b600061122b8383611201565b9150826002028217905092915050565b61124482610e50565b67ffffffffffffffff81111561125d5761125c610b31565b5b6112678254611054565b6112728282856111ae565b600060209050601f8311600181146112a55760008415611293578287015190505b61129d858261121f565b865550611305565b601f1984166112b386611085565b60005b828110156112db578489015182556001820191506020850194506020810190506112b6565b868310156112f857848901516112f4601f891682611201565b8355505b6001600288020188555050505b505050505050565b7f5573657220494420697320616c72656164792072656769737465726564000000600082015250565b6000611343601d83610fa8565b915061134e8261130d565b602082019050919050565b6000602082019050818103600083015261137281611336565b9050919050565b6000819050919050565b600067ffffffffffffffff82169050919050565b60006113b26113ad6113a884611379565b611113565b611383565b9050919050565b6113c281611397565b82525050565b60006020820190506113dd60008301846113b9565b9291505056fea2646970667358221220db6dc6cd89dea3a4f09389670f0127c987b31209509e8cda16916db1d31a851b64736f6c634300081c0033",
  "linkReferences": {},
  "deployedLinkReferences": {}
}