{
    "_format": "hh-sol-artifact-1",
    "contractName": "KeyManagerV2",
    "sourceName": "contracts/KeyManagerV2.sol",
    "abi": [
        {
            "inputs": [],
            "name": "InvalidInitialization",
            "type": "error"
        },
        {
            "inputs": [],
            "name": "NotInitializing",
            "type": "error"
        },
        {
            "inputs": [
                {
                    "internalType": "address",
                    "name": "owner",
                    "type": "address"
                }
            ],
            "name": "OwnableInvalidOwner",
            "type": "error"
        },
        {
            "inputs": [
                {
                    "internalType": "address",
                    "name": "account",
                    "type": "address"
                }
            ],
            "name": "OwnableUnauthorizedAccount",
            "type": "error"
        },
        {
            "anonymous": false,
            "inputs": [
                {
                    "indexed": false,
                    "internalType": "uint64",
                    "name": "version",
                    "type": "uint64"
                }
            ],
            "name": "Initialized",
            "type": "event"
        },
        {
            "anonymous": false,
            "inputs": [
                {
                    "indexed": true,
                    "internalType": "address",
                    "name": "previousOwner",
                    "type": "address"
                },
                {
                    "indexed": true,
                    "internalType": "address",
                    "name": "newOwner",
                    "type": "address"
                }
            ],
            "name": "OwnershipTransferred",
            "type": "event"
        },
        {
            "inputs": [],
            "name": "getOwner",
            "outputs": [
                {
                    "internalType": "address",
                    "name": "",
                    "type": "address"
                }
            ],
            "stateMutability": "view",
            "type": "function"
        },
        {
            "inputs": [
                {
                    "internalType": "string",
                    "name": "userId",
                    "type": "string"
                }
            ],
            "name": "getPublicKey",
            "outputs": [
                {
                    "internalType": "bytes",
                    "name": "",
                    "type": "bytes"
                }
            ],
            "stateMutability": "view",
            "type": "function"
        },
        {
            "inputs": [
                {
                    "internalType": "address",
                    "name": "_owner",
                    "type": "address"
                }
            ],
            "name": "initialize",
            "outputs": [],
            "stateMutability": "nonpayable",
            "type": "function"
        },
        {
            "inputs": [
                {
                    "internalType": "string",
                    "name": "userId",
                    "type": "string"
                }
            ],
            "name": "isUserRegistered",
            "outputs": [
                {
                    "internalType": "bool",
                    "name": "",
                    "type": "bool"
                }
            ],
            "stateMutability": "view",
            "type": "function"
        },
        {
            "inputs": [],
            "name": "owner",
            "outputs": [
                {
                    "internalType": "address",
                    "name": "",
                    "type": "address"
                }
            ],
            "stateMutability": "view",
            "type": "function"
        },
        {
            "inputs": [],
            "name": "renounceOwnership",
            "outputs": [],
            "stateMutability": "nonpayable",
            "type": "function"
        },
        {
            "inputs": [
                {
                    "internalType": "string",
                    "name": "userId",
                    "type": "string"
                },
                {
                    "internalType": "bytes",
                    "name": "publicKey",
                    "type": "bytes"
                }
            ],
            "name": "setPublicKey",
            "outputs": [],
            "stateMutability": "nonpayable",
            "type": "function"
        },
        {
            "inputs": [
                {
                    "internalType": "address",
                    "name": "newOwner",
                    "type": "address"
                }
            ],
            "name": "transferOwnership",
            "outputs": [],
            "stateMutability": "nonpayable",
            "type": "function"
        },
        {
            "inputs": [
                {
                    "internalType": "string",
                    "name": "userId",
                    "type": "string"
                },
                {
                    "internalType": "bytes",
                    "name": "newPublicKey",
                    "type": "bytes"
                }
            ],
            "name": "updatePublicKey",
            "outputs": [],
            "stateMutability": "nonpayable",
            "type": "function"
        }
    ],
    "bytecode": "0x6080604052348015600f57600080fd5b506112bd8061001f6000396000f3fe608060405234801561001057600080fd5b50600436106100935760003560e01c806398319da61161006657806398319da6146100fa578063a8cc778414610116578063bff9082114610146578063c4d66de814610176578063f2fde38b1461019257610093565b80634b6c2b3714610098578063715018a6146100b4578063893d20e8146100be5780638da5cb5b146100dc575b600080fd5b6100b260048036038101906100ad9190610ba1565b6101ae565b005b6100bc610266565b005b6100c661027a565b6040516100d39190610c5a565b60405180910390f35b6100e4610289565b6040516100f19190610c5a565b60405180910390f35b610114600480360381019061010f9190610ba1565b6102c1565b005b610130600480360381019061012b9190610c75565b6103a5565b60405161013d9190610cd9565b60405180910390f35b610160600480360381019061015b9190610c75565b6103fa565b60405161016d9190610d73565b60405180910390f35b610190600480360381019061018b9190610dc1565b6104ca565b005b6101ac60048036038101906101a79190610dc1565b610659565b005b6101b66106df565b6000826040516020016101c99190610e35565b6040516020818303038152906040528051906020012090506001600082815260200190815260200160002060009054906101000a900460ff16610241576040517f08c379a000000000000000000000000000000000000000000000000000000000815260040161023890610ea9565b60405180910390fd5b81600080838152602001908152602001600020908161026091906110df565b50505050565b61026e6106df565b6102786000610766565b565b6000610284610289565b905090565b60008061029461083d565b90508060000160009054906101000a900473ffffffffffffffffffffffffffffffffffffffff1691505090565b6102c96106df565b6000826040516020016102dc9190610e35565b6040516020818303038152906040528051906020012090506001600082815260200190815260200160002060009054906101000a900460ff1615610355576040517f08c379a000000000000000000000000000000000000000000000000000000000815260040161034c906111fd565b60405180910390fd5b81600080838152602001908152602001600020908161037491906110df565b50600180600083815260200190815260200160002060006101000a81548160ff021916908315150217905550505050565b600080826040516020016103b99190610e35565b6040516020818303038152906040528051906020012090506001600082815260200190815260200160002060009054906101000a900460ff16915050919050565b606060008260405160200161040f9190610e35565b604051602081830303815290604052805190602001209050600080828152602001908152602001600020805461044490610ef8565b80601f016020809104026020016040519081016040528092919081815260200182805461047090610ef8565b80156104bd5780601f10610492576101008083540402835291602001916104bd565b820191906000526020600020905b8154815290600101906020018083116104a057829003601f168201915b5050505050915050919050565b60006104d4610865565b905060008160000160089054906101000a900460ff1615905060008260000160009054906101000a900467ffffffffffffffff1690506000808267ffffffffffffffff161480156105225750825b9050600060018367ffffffffffffffff16148015610557575060003073ffffffffffffffffffffffffffffffffffffffff163b145b905081158015610565575080155b1561059c576040517ff92ee8a900000000000000000000000000000000000000000000000000000000815260040160405180910390fd5b60018560000160006101000a81548167ffffffffffffffff021916908367ffffffffffffffff16021790555083156105ec5760018560000160086101000a81548160ff0219169083151502179055505b6105f586610879565b83156106515760008560000160086101000a81548160ff0219169083151502179055507fc7f505b2f371ae2175ee4913f4499e1f2633a7b5936321eed1cdaeb6115181d26001604051610648919061126c565b60405180910390a15b505050505050565b6106616106df565b600073ffffffffffffffffffffffffffffffffffffffff168173ffffffffffffffffffffffffffffffffffffffff16036106d35760006040517f1e4fbdf70000000000000000000000000000000000000000000000000000000081526004016106ca9190610c5a565b60405180910390fd5b6106dc81610766565b50565b6106e761088d565b73ffffffffffffffffffffffffffffffffffffffff16610705610289565b73ffffffffffffffffffffffffffffffffffffffff16146107645761072861088d565b6040517f118cdaa700000000000000000000000000000000000000000000000000000000815260040161075b9190610c5a565b60405180910390fd5b565b600061077061083d565b905060008160000160009054906101000a900473ffffffffffffffffffffffffffffffffffffffff169050828260000160006101000a81548173ffffffffffffffffffffffffffffffffffffffff021916908373ffffffffffffffffffffffffffffffffffffffff1602179055508273ffffffffffffffffffffffffffffffffffffffff168173ffffffffffffffffffffffffffffffffffffffff167f8be0079c531659141344cd1fd0a4f28419497f9722a3daafe3b4186f6b6457e060405160405180910390a3505050565b60007f9016d09d72d40fdae2fd8ceac6b6234c7706214fd39c1cd1e609a0528c199300905090565b600080610870610895565b90508091505090565b6108816108c0565b61088a81610900565b50565b600033905090565b60007ff0c57e16840df040f15088dc2f81fe391c3923bec73e23a9662efc9c229c6a0060001b905090565b6108c8610986565b6108fe576040517fd7e6bcf800000000000000000000000000000000000000000000000000000000815260040160405180910390fd5b565b6109086108c0565b600073ffffffffffffffffffffffffffffffffffffffff168173ffffffffffffffffffffffffffffffffffffffff160361097a5760006040517f1e4fbdf70000000000000000000000000000000000000000000000000000000081526004016109719190610c5a565b60405180910390fd5b61098381610766565b50565b6000610990610865565b60000160089054906101000a900460ff16905090565b6000604051905090565b600080fd5b600080fd5b600080fd5b600080fd5b6000601f19601f8301169050919050565b7f4e487b7100000000000000000000000000000000000000000000000000000000600052604160045260246000fd5b610a0d826109c4565b810181811067ffffffffffffffff82111715610a2c57610a2b6109d5565b5b80604052505050565b6000610a3f6109a6565b9050610a4b8282610a04565b919050565b600067ffffffffffffffff821115610a6b57610a6a6109d5565b5b610a74826109c4565b9050602081019050919050565b82818337600083830152505050565b6000610aa3610a9e84610a50565b610a35565b905082815260208101848484011115610abf57610abe6109bf565b5b610aca848285610a81565b509392505050565b600082601f830112610ae757610ae66109ba565b5b8135610af7848260208601610a90565b91505092915050565b600067ffffffffffffffff821115610b1b57610b1a6109d5565b5b610b24826109c4565b9050602081019050919050565b6000610b44610b3f84610b00565b610a35565b905082815260208101848484011115610b6057610b5f6109bf565b5b610b6b848285610a81565b509392505050565b600082601f830112610b8857610b876109ba565b5b8135610b98848260208601610b31565b91505092915050565b60008060408385031215610bb857610bb76109b0565b5b600083013567ffffffffffffffff811115610bd657610bd56109b5565b5b610be285828601610ad2565b925050602083013567ffffffffffffffff811115610c0357610c026109b5565b5b610c0f85828601610b73565b9150509250929050565b600073ffffffffffffffffffffffffffffffffffffffff82169050919050565b6000610c4482610c19565b9050919050565b610c5481610c39565b82525050565b6000602082019050610c6f6000830184610c4b565b92915050565b600060208284031215610c8b57610c8a6109b0565b5b600082013567ffffffffffffffff811115610ca957610ca86109b5565b5b610cb584828501610ad2565b91505092915050565b60008115159050919050565b610cd381610cbe565b82525050565b6000602082019050610cee6000830184610cca565b92915050565b600081519050919050565b600082825260208201905092915050565b60005b83811015610d2e578082015181840152602081019050610d13565b60008484015250505050565b6000610d4582610cf4565b610d4f8185610cff565b9350610d5f818560208601610d10565b610d68816109c4565b840191505092915050565b60006020820190508181036000830152610d8d8184610d3a565b905092915050565b610d9e81610c39565b8114610da957600080fd5b50565b600081359050610dbb81610d95565b92915050565b600060208284031215610dd757610dd66109b0565b5b6000610de584828501610dac565b91505092915050565b600081519050919050565b600081905092915050565b6000610e0f82610dee565b610e198185610df9565b9350610e29818560208601610d10565b80840191505092915050565b6000610e418284610e04565b915081905092915050565b600082825260208201905092915050565b7f55736572204944206973206e6f74207265676973746572656400000000000000600082015250565b6000610e93601983610e4c565b9150610e9e82610e5d565b602082019050919050565b60006020820190508181036000830152610ec281610e86565b9050919050565b7f4e487b7100000000000000000000000000000000000000000000000000000000600052602260045260246000fd5b60006002820490506001821680610f1057607f821691505b602082108103610f2357610f22610ec9565b5b50919050565b60008190508160005260206000209050919050565b60006020601f8301049050919050565b600082821b905092915050565b600060088302610f8b7fffffffffffffffffffffffffffffffffffffffffffffffffffffffffffffffff82610f4e565b610f958683610f4e565b95508019841693508086168417925050509392505050565b6000819050919050565b6000819050919050565b6000610fdc610fd7610fd284610fad565b610fb7565b610fad565b9050919050565b6000819050919050565b610ff683610fc1565b61100a61100282610fe3565b848454610f5b565b825550505050565b600090565b61101f611012565b61102a818484610fed565b505050565b5b8181101561104e57611043600082611017565b600181019050611030565b5050565b601f8211156110935761106481610f29565b61106d84610f3e565b8101602085101561107c578190505b61109061108885610f3e565b83018261102f565b50505b505050565b600082821c905092915050565b60006110b660001984600802611098565b1980831691505092915050565b60006110cf83836110a5565b9150826002028217905092915050565b6110e882610cf4565b67ffffffffffffffff811115611101576111006109d5565b5b61110b8254610ef8565b611116828285611052565b600060209050601f8311600181146111495760008415611137578287015190505b61114185826110c3565b8655506111a9565b601f19841661115786610f29565b60005b8281101561117f5784890151825560018201915060208501945060208101905061115a565b8683101561119c5784890151611198601f8916826110a5565b8355505b6001600288020188555050505b505050505050565b7f5573657220494420697320616c72656164792072656769737465726564000000600082015250565b60006111e7601d83610e4c565b91506111f2826111b1565b602082019050919050565b60006020820190508181036000830152611216816111da565b9050919050565b6000819050919050565b600067ffffffffffffffff82169050919050565b600061125661125161124c8461121d565b610fb7565b611227565b9050919050565b6112668161123b565b82525050565b6000602082019050611281600083018461125d565b9291505056fea2646970667358221220eaeb89a044dc479174debcda456fd691d6e467772f4b5e66e14661ea7d41442264736f6c634300081c0033",
    "linkReferences": {},
    "deployedLinkReferences": {}
}